:10000000F9C0000028C1000026C1000024C1000082
:1000100022C1000020C100001EC100001CC1000060
:100020001AC1000018C1000016C1000014C1000070
:1000300012C1000010C100000EC100000CC1000080
:100040000AC1000008C1000006C1000004C1000090
:1000500002C1000000C10000FEC000000C94E63B9D
:10006000FAC000000C94BA3F0C94F03FF4C00000BA
:10007000F2C00000F0C00000EEC00000ECC00000C4
:10008000EAC00000E8C00000E6C00000E4C00000D4
:100090000C9446400C947C40DEC000000C94C53AA1
:1000A000DAC00000D8C00000D6C00000D4C00000F4
:1000B000D2C00000D0C00000CEC00000CCC0000004
:1000C000CAC00000C8C000000C94F9320C94D240A1
:1000D0000C940841C0C000000C945E410C94944103
:1000E000BAC0000000000A0B02090C0D0E0807033D
:1000F00004010000000000000000000000000000FB
:1001000000000000000000000000000000000000EF
:1001100012111000000000000000000000000000AC
:100120000000000000000000000001021020200874
:100130000810204010204080020102010804020142
:1001400001020408102040808040201008040201B1
:10015000800402018040201008040201080402010A
:100160000102040810204080010204081020408091
:1001700005050505070508080808020202020A0A23
:100180000808040404040101010101010101030341
:10019000030303030303040707070C0C0C0C0C0CEC
:1001A0000C0C0202020206060606060606060B0BE9
:1001B0000B0B0B0B0B0B00002200250028002B0063
:1001C0002E003100340002010000050108010B017E
:1001D00000002100240027002A002D0030003300F9
:1001E00001010000040107010A0130381940A5404F
:1001F0003141BD4111241FBECFEFD1E2DEBFCDBFE3
:1002000000E00CBF13E0A0E0B2E0E0E2F5E800E0BF
:100210000BBF02C007900D92AE31B107D9F72CE0A9
:10022000AEE1B3E001C01D92A332B207E1F710E0E6
:10023000CAEFD0E000E006C021970109802FFE013F
:100240000E945D42C53FD10780E00807A9F70E94E0
:10025000EC330C948E42D4CECF92DF92EF92FF9289
:100260006B017C01C114D104E104F10469F48091B3
:100270000002811109C080910202909103020E9444
:10028000A13781E080930002C601880F991F880F73
:10029000991F80509E4FFF90EF90DF90CF90089570
:1002A000009781F0FC012181211104C040EA56E849
:1002B00061E070E0FC01828193810E94B03790E0A0
:1002C00080E0089588E090E008954F925F926F92E9
:1002D0007F928F929F92AF92BF92CF92DF92EF92D6
:1002E000FF920F931F93CF93DF930097C9F12801DB
:1002F00039017A01EC01402F8A819B810E942E38BE
:100300008A819B81DC01ED91FC910084F185E02DD7
:100310001995892B01F16701812C912C54018A8157
:100320009B81DC01ED91FC910084F185E02D199514
:10033000892B91F184149504A604B70469F18A818C
:100340009B81DC01ED91FC910284F385E02D1995F0
:100350008F3F9807C1F484E0F70111928A95E9F77D
:1003600088E090E0DF91CF911F910F91FF90EF9087
:10037000DF90CF90BF90AF909F908F907F906F90C5
:100380005F904F900895FFEF8F1A9F0AAF0ABF0A40
:10039000D6018D936D01C3CF90E080E0E3CF8F92C3
:1003A0009F92AF92BF92CF92DF92EF920F931F93E3
:1003B000CF93DF930097F1F06A01EC018A819B8172
:1003C0000E94B3378A819B81DC01ED91FC91028010
:1003D000F381E02DA801B60119958A819B8160E027
:1003E000E11001C061E00E94BD37882389F082508E
:1003F000823088F088E090E0DF91CF911F910F91DB
:10040000EF90DF90CF90BF90AF909F908F90089526
:1004100090E080E0F1CF84E090E0EECF0895CF93BC
:10042000282F8823E1F0CB01BA01CFEFC20FEC2FC8
:10043000F0E0E25EFC4F2081213059F490580E9498
:10044000FE349B01AC016C2F70E090E080E0CF9116
:10045000A2C00E94F9348C2FCF910C94ED3CCF9127
:1004600008950F931F938B019C0183E03695279588
:10047000179507958A95D1F70C591C4F462F477051
:1004800021E030E0F90102C0EE0FFF1F4A95E2F7CC
:10049000AF01F80120812423CB010196211102C074
:1004A00090E080E01F910F9108950F931F938B01AF
:1004B0009C0183E036952795179507958A95D1F786
:1004C000677081E090E001C0880F6A95EAF7F80153
:1004D000EC59FC4F2081452B31F480958223808399
:1004E0001F910F910895822BFACF4F925F926F92D6
:1004F0007F928F929F92AF92BF92CF92DF92EF92B4
:10050000FF920F931F93CF93DF934B015C0129015F
:100510003A01670161E0882D0E94273EE40121969F
:10052000AE01C501B401C1DF20E030E0A901C8017E
:10053000B6010E947D3618168CF4F401E25EFC4F81
:1005400081E08083C801B6010E94FE346B01C301C3
:10055000B2010E94FE34A601C40121D0CE01DF9178
:10056000CF911F910F91FF90EF90DF90CF90BF90B0
:10057000AF909F908F907F906F905F904F90089575
:10058000882341F08150682F70E090E080E050E0D7
:1005900040E08BCF0895862FB9010C94ED3C9C016F
:1005A000FC01EC51FF4FE491E150E231E0F4F0E066
:1005B0008827E252FD4F8F4F0C945D42F002F70204
:1005C000FA0211032603F3023B0347034B036203C2
:1005D00077038C03A303B803F302CD03E403F90309
:1005E00084B5806884BD60E0822F0C94633E84B53E
:1005F0008062F8CF809180008C7F82608093800041
:1006000080918100807E8061682B6093810050938F
:1006100087004093860080918000806880938000EE
:10062000E2CF809180008C7F8260809380008091F7
:100630008100807E8061682B6093810050938700E9
:1006400040938600809180008062E8CF8091800096
:100650008C7F82608093800080918100807E8061A9
:10066000682B6093810050938700409386008091AF
:1006700080008860D3CF8091B00080688093B00004
:100680008091B100887F682B6093B100ACCF8091DE
:10069000B0008062F3CF809190008C7F8260809365
:1006A000900080919100807E8061682B6093910022
:1006B00050939700409396008091900080688093BB
:1006C000900091CF809190008C7F82608093900009
:1006D00080919100807E8061682B6093910050939F
:1006E000970040939600809190008062E8CF8091BF
:1006F00090008C7F82608093900080919100807E3A
:100700008061682B6093910050939700409396000E
:10071000809190008860D3CF8091A0008C7F826010
:100720008093A0008091A100807E8061682B6093FF
:10073000A1005093A7004093A6008091A00080687C
:100740008093A00050CF8091A0008C7F8260809326
:10075000A0008091A100807E8061682B6093A10041
:100760005093A7004093A6008091A0008062E8CF3C
:100770008091A0008C7F82608093A0008091A10076
:10078000807E8061682B6093A1005093A700409306
:10079000A6008091A0008860D3CF809120018C7F3B
:1007A00082608093200180912101807E8061682B8E
:1007B00060932101509327014093260180912001ED
:1007C0008068809320010FCF809120018C7F826010
:1007D0008093200180912101807E8061682B60934D
:1007E00021015093270140932601809120018062CE
:1007F000E8CF809120018C7F8260809320018091DE
:100800002101807E8061682B609321015093270134
:1008100040932601809120018860D3CF90E080E052
:1008200008950F931F93009709F48AC0611571050D
:1008300009F486C0009144021091450220914602BD
:10084000309147020E3F1F4F2F4F3F4F09F06AC0B4
:10085000DB014D915D916D917C91409344025093E9
:1008600045026093460270934702409144025091C2
:1008700045026091460270914702DC011296ED91AB
:10088000FC9180819181A281B3818093AF04909388
:10089000B004A093B104B093B20484819581A68181
:1008A000B7818093AB049093AC04A093AD04B09354
:1008B000AE0480859185A285B3858093A70490932B
:1008C000A804A093A904B093AA0484859585A6855D
:1008D000B7858093A3049093A404A093A504B09338
:1008E000A60410929F041092A0041092A1041092EA
:1008F000A2040E949D1682EC96E190936E03809371
:100900006D039093700380936F030E948C15009782
:1009100031F421E030E03093B4042093B3041F910C
:100920000F910895009144021091450220914602D2
:1009300030914702FB01008311832283338395CFDB
:100940008FEF9FEFECCF8F929F92AF92BF92CF929B
:10095000DF92EF92FF921F93CF93DF934B015C01E5
:100960001091B60482E090E09093B4048093B304B5
:1009700081149104A104B10441F48091B604811161
:1009800004C08091B504C1E08111C0E0C12CD12C1C
:1009900076018091B604811106C08091B504811161
:1009A00002C0CC23D9F083E090E09093B40480930C
:1009B000B304CC2381F1CCE9DFEF111102C00E9416
:1009C000271ACE01DF91CF911F91FF90EF90DF901A
:1009D000CF90BF90AF909F908F9008956AE070E0A5
:1009E00080E090E00E94553C80E1C80E87E2D81E6E
:1009F000E11CF11C8FEF88169806A806B80631F0A6
:100A0000C1E08C149D04AE04BF0408F0C0E080E097
:100A10000E94C015BECFD0E0C0E0CFCFCF92DF9212
:100A2000EF92FF920F931F93CF93DF938F3F910528
:100A300011F008F051C02091B3043091B404233078
:100A4000310539F02091B3043091B40421303105DF
:100A500031F424E030E03093B4042093B3046A010D
:100A60007B01EC0182309105A8F011E0AE01C701D5
:100A7000B6010E948B15AB01BC01CE011123F9F028
:100A8000DF91CF911F910F91FF90EF90DF90CF906A
:100A90000C944C1C8C01000F111F03591C4FD801E2
:100AA0008D919C91892B09F30E94561C0297E9F6BF
:100AB000D801ED91FC91CE011995182FD7CF0E9446
:100AC0006E1C90E080E0DF91CF911F910F91FF901D
:100AD000EF90DF90CF9008958FEF9FEFF4CF80E0FD
:100AE0000C94C015CF93DF9386E090E09093B4040C
:100AF0008093B3040E941916EC01EDE6F3E084E064
:100B0000DF011D928A95E9F70E94BF191092B40483
:100B10001092B304CE01DF91CF9108958091B50476
:100B2000089580919E040895609344027093450255
:100B3000809346029093470290E080E008952F92C0
:100B40003F924F925F926F927F928F929F92AF925D
:100B5000BF92CF92DF92EF92FF920F931F93CF93AA
:100B6000DF93CDB7DEB760970FB6F894DEBF0FBE48
:100B7000CDBF2C018A01688B7F87FC01EF5AFF4FA4
:100B800080819181A281B3819C01AD01505829835C
:100B90003A834B835C83980148895F8569817A81B8
:100BA0008B819C810E94F5341816CCF460960FB6A8
:100BB000F894DEBF0FBECDBFDF91CF911F910F9193
:100BC000FF90EF90DF90CF90BF90AF909F908F906D
:100BD0007F906F905F904F903F902F900895D2013B
:100BE000D1968D909D90AD90BC90D49720E030E050
:100BF00040E85FEBB80188899F850E94F53487FF44
:100C000067C0980148895F8569817A818B819C8161
:100C10000E94F53487FF5CC020E030E040E85FE3ED
:100C2000B80188899F850E947D343B016C01A50134
:100C30009401B80188899F850E947E340E94F9340E
:100C400061507109660F771F660F771FF201E60F7B
:100C5000F71F658D768D878D90A10E94F9346150C4
:100C60007109660F771F660F771F7201E60EF71E78
:100C7000A5019401B301C6010E947E340E94F9349B
:100C800061507109660F771F660F771FF201E60F3B
:100C9000F71F658D768D878D90A10E94F934615084
:100CA0007109660F771F660F771FF201E60FF71FB6
:100CB0002185328543855485F70161857285838559
:100CC00094850E94F53487FF03C08301C88ADF86BC
:100CD00020E030E040E05FE3B80188899F850E9412
:100CE00081366B017C0120E030E0A9010E94F534DF
:100CF00087FFABC0C701B6010E94E234A501940191
:100D00000E947E346B017C01A5019401B8018889A1
:100D10009F850E947E344B015C01C701B6010E9491
:100D2000F93461507109660F771F660F771F120142
:100D3000260E371ED1015D962D913D914D915C910E
:100D400090972D833E834F835887C501B4010E943D
:100D5000F93461507109660F771F660F771FF20132
:100D6000E60FF71FFE87ED87258D368D478D50A145
:100D700029873A874B875C876D817E818F81988533
:100D80000E94F93461507109660F771F660F771F53
:100D90003201660E771E69857A858B859C850E9457
:100DA000F93461507109660F771F660F771FF201E2
:100DB000E60FF71F2185328543855485F301618550
:100DC0007285838594850E94F53487FFEFCE29854F
:100DD0003A854B855C85D1015D962D933D934D936E
:100DE0005C9390972D813E814F815885AD85BE855E
:100DF0005D962D933D934D935C939097F101658D96
:100E0000768D878D90A10E94F93461507109660F2B
:100E1000771F660F771FF201E60FF71FC1AED2AE44
:100E2000E3AEF4AED301D9968D929D92AD92BC9271
:100E3000DC97980148895F85B80188899F850E9461
:100E40007E348B01888B9F87A6CEC701B6010E9496
:100E5000673554CF2F923F924F925F926F927F925D
:100E60008F929F92AF92BF92CF92DF92EF92FF92BA
:100E70000F931F93CF93DF93CDB7DEB760970FB675
:100E8000F894DEBF0FBECDBF1C018A01688B7F873F
:100E9000FC01E35BFF4F80819181A281B3818B8351
:100EA0009C83AD83BE83980148895F856B817C817B
:100EB0008D819E810E947D3687FF19C060960FB696
:100EC000F894DEBF0FBECDBFDF91CF911F910F9180
:100ED000FF90EF90DF90CF90BF90AF909F908F905A
:100EE0007F906F905F904F903F902F900895D10129
:100EF000D1968D909D90AD90BC90D49720E030E03D
:100F000040E85FE3B80188899F850E947D36181606
:100F10000CF066C0980148895F856B817C818D816A
:100F20009E810E947D3618160CF05AC020E030E0F9
:100F300040E85FE3B80188899F850E947E343B01C9
:100F40006C01A50194010E947E340E94F934615025
:100F50007109660F771F660F771FF101E60FF71F04
:100F6000658D768D878D90A10E94F934615071094D
:100F7000660F771F660F771F7101E60EF71EA5013A
:100F80009401B80188899F850E947E340E94F934BB
:100F900061507109660F771F660F771FF101E60F29
:100FA000F71F658D768D878D90A10E94F934615071
:100FB0007109660F771F660F771FF101E60FF71FA4
:100FC0002185328543855485F70161857285838546
:100FD00094850E94F53487FF03C08301C88ADF86A9
:100FE00020E030E040E05FE3B80188899F850E94FF
:100FF00081366B017C0120E030E0A9010E94F534CC
:1010000087FFABC0C701B6010E94E2342B013C014F
:10101000A5019401B80188899F850E947E346B01E7
:101020007C01A5019401C301B2010E947E344B01F1
:101030005C01C701B6010E94F93461507109660F65
:10104000771F660F771FC101860F971F9A838983C9
:10105000DC015D968D919D910D90BC91A02D8F83AB
:101060009887A987BA87C501B4010E94F9346150F5
:101070007109660F771F660F771FF101E60FF71FE3
:10108000FC87EB87458C568C678C70A06F817885C8
:1010900089859A850E94F93461507109660F771F1E
:1010A000660F771FC101860F971F9E878D87C3012B
:1010B000B2010E94F93461507109660F771F660F03
:1010C000771FF101E60FF71F21853285438554858F
:1010D000AD85BE8519966D917D918D919C911C97E2
:1010E0000E94F53487FFEACEE981FA81458E568E5B
:1010F000678E70A28F819885A985BA85EB85FC855E
:10110000858F968FA78FB0A3A981BA815D966D91C7
:101110007D918D919C9190970E94F9346150710955
:10112000660F771F660F771FF101E60FF71FC1AE3D
:10113000D2AEE3AEF4AEED85FE8581AE92AEA3AE47
:10114000B4AE980148895F85B80188899F850E945F
:101150007E348B01888B9F87A6CEC701B6010E9483
:10116000673554CFFC011082DC01A158BF4F81E0EC
:101170008C9341E050E060E070E0418352836383F0
:10118000748346A357A360A771A712A613A614A63B
:1011900015A6858308952F923F924F925F926F928A
:1011A0007F928F929F92AF92BF92CF92DF92EF92F7
:1011B000FF920F931F93CF93DF93CDB7DEB7629764
:1011C0000FB6F894DEBF0FBECDBF2B013C015E838E
:1011D0004D838901F90182A593A5A4A5B5A5019721
:1011E000A105B10509F4AAC081E090E0A0E0B0E05B
:1011F00082A793A7A4A7B5A786A7F396C901895B81
:101200009F4F119211921192119214A615A616A633
:1012100017A6108A118A128A138A8E179F0789F7D8
:1012200080E090E0A0EAB0E4F80187A790ABA1AB22
:10123000B2ABE15AFF4F80839183A283B38380E0F6
:1012400090E0A0E4B0E4349780839183A283B383D9
:1012500080E090E0A0E0B0E47C9680839183A2835C
:10126000B383349680839183A283B38398012D58EE
:101270003F4F38872F83C12CD12C40EAE42E40E425
:10128000F42E81E090E09A838983312C212CB101E6
:10129000032C000C880B990B0E942C359B01AC0190
:1012A00060E070E080EA90E40E947D344B015C01D4
:1012B00020E030E040E050E40E94813520E030E062
:1012C000A9010E94F5348111D6C0A981BA81BD015E
:1012D000BB0F880B990B0E942C35EF81F88560833A
:1012E00071838283938329813A812F5F3F4F3A83B1
:1012F0002983EF81F88560817181828193810E94C9
:10130000F93461507109FB01EE0FFF1FEE0FFF1F53
:10131000E00FF11FE95BFF4F80829182A282B382CE
:10132000FFEF2F1A3F0A2F81388524503109388763
:101330002F8335E02316310409F0A9CFC801815A63
:101340009F4F98878F83DC018D919D910D90BC916B
:10135000A02D89839A83AB83BC83BC01CD010E94FD
:10136000F93461507109660F771F660F771FF80116
:10137000E60FF71F83A894A8A5A8B6A8AD81BE81E3
:1013800014968D929D92AD92BC92179743AA54AA3F
:1013900065AA76AAED59FF4FC080D180E280F38024
:1013A000FD01C086D186E286F38620E030E040E889
:1013B0005FE369817A818B819C810E947E3469839D
:1013C0007A838B839C83AF81B8856D937D938D9356
:1013D0009C93139720E030E040E85FE3F80167A5B5
:1013E00070A981A992A90E947E349B01AC016981F8
:1013F0007A818B819C810E94F53481110AC080E042
:1014000090E0A0E8BFE3EF81F88580839183A28319
:10141000B383F801E55AFF4F80819181A281B381A6
:1014200089839A83AB83BC839C01AD01C701B6015C
:101430000E947D3629813A814B815C8118160CF01F
:1014400055C1C701B6010E947D346B017C01A30127
:101450009201C501B4010E94F53487FF1EC0A701A7
:101460009601C701B6010E947E34AB01BC01C801E0
:101470008A96F0DC3AC0AF81B885CD92DD92ED92CC
:10148000FC92139720E030E040E85FE3C701B6012B
:101490000E947D346B017C012CCFAD81BE811496FE
:1014A000CD92DD92ED92FC921797AD81BE8114969C
:1014B000CD90DD90ED90FC90179720E030E0A901F1
:1014C000C701B6010E947D3618160CF453C020E007
:1014D00030E0A901C701B6010E94F53440E050E0B8
:1014E00060E87FEB882309F421C1F801E55AFF4F3A
:1014F00060817181828193810E94F9346150710908
:10150000660F771F660F771FF801E60FF71FE95B7D
:10151000FF4F60817181828193810E94F934FB01C8
:101520003197EE0FFF1FEE0FFF1FE00FF11F83A992
:1015300094A9A5A9B6A9ED81FE8180839183A28398
:10154000B38362960FB6F894DEBF0FBECDBFDF91B6
:10155000CF911F910F91FF90EF90DF90CF90BF90B0
:10156000AF909F908F907F906F905F904F903F9043
:101570002F900895A701960169817A818B819C81C2
:101580000E947E342B013C0120E030E040E05FE32C
:10159000C701B6010E9481360E9467356B017C014C
:1015A000AC019B0169817A818B819C810E947E3490
:1015B0004B015C01C301B2010E94F9346150710911
:1015C000660F771F660F771FC801860F971FFC01F4
:1015D000E95BFF4FF887EF8380819181A281B3811E
:1015E00089879A87AB87BC87C501B4010E94F9340B
:1015F00061507109660F771F660F771F1801260E5D
:10160000371EB7E42B0E311CD1018D919D910D90A9
:10161000BC91A02D8D879E87AF87B88B69857A8511
:101620008B859C850E94F934FB013197EE0FFF1FDB
:10163000EE0FFF1FE00FF11FFA8BE98B6D857E85A2
:101640008F8598890E94F93461507109660F771F60
:10165000660F771FF801E60FF71F23A934A945A9E4
:1016600056A9A989BA89D3966D917D918D919C9146
:10167000D6970E94F53487FF38CF8D859E85AF853C
:10168000B889EF81F88580839183A283B3838985AC
:101690009A85AB85BC85F10180839183A283B38356
:1016A000AF81B8856D917D918D919C910E94F934A7
:1016B00061507109660F771F660F771FF801E60FFB
:1016C000F71FED59FF4F4082518262827382E98990
:1016D000FA89ED59FF4F80829182A282B382ED8117
:1016E000FE81C482D582E682F782DFCEC701B601D1
:1016F0000E94F53487FF2CC129813A814B815C819E
:10170000C701B6010E947D346B017C01A3019201E7
:10171000C501B4010E947D36181664F4A701960134
:10172000C701B6010E947E34AB01BC01C8018A9694
:1017300006DADBCEED81FE81C482D582E682F782B5
:10174000AD81BE8114968D909D90AD90BC90179701
:1017500020E030E0A901C501B4010E94F53487FD05
:101760000EC020E030E0A901C501B4010E94F534AB
:101770008111BBCE40E050E060E87FE378CE20E00E
:1017800030E040E05FE3C501B4010E9481366B01A7
:101790007C01AD81BE811896CD92DD92ED92FC92D6
:1017A0001B9720E030E0A9010E94F53420E030E0F2
:1017B00040E050E887FF06C0C701B6010E94E2344E
:1017C0009B01AC0169817A818B819C810E947E346E
:1017D0002B013C01A501940169817A818B819C8157
:1017E0000E947E344B015C01C301B2010E94F934B6
:1017F00061507109660F771F660F771FC801860F4A
:10180000971FFC01E95BFF4FF887EF83808191818F
:10181000A281B38189879A87AB87BC87C501B40150
:101820000E94F93461507109660F771F660F771FA8
:101830001801260E371EB7E42B0E311CD1018D91F5
:101840009D910D90BC91A02D8D879E87AF87B88B01
:1018500069857A858B859C850E94F934FB013197D7
:10186000EE0FFF1FEE0FFF1FE00FF11FFA8BE98B4A
:101870006D857E858F8598890E94F9346150710944
:10188000660F771F660F771FF801E60FF71F23A972
:1018900034A945A956A9A989BA89D3966D917D9194
:1018A0008D919C91D6970E94F53487FF1ECE8D8531
:1018B0009E85AF85B889EF81F88580839183A28367
:1018C000B38389859A85AB85BC85F101808391833B
:1018D000A283B383AF81B8856D917D918D919C91E9
:1018E0000E94F93461507109660F771F660F771FE8
:1018F000F801E60FF71FED59FF4F408251826282D7
:101900007382E989FA89ED59FF4F80829182A28220
:10191000B38220E030E0A901C701B6010E94F5348E
:1019200087FF0BC0C701B6010E94E234ED81FE8142
:10193000648375838683978303CF80E090E0A0E083
:10194000B0E8ED81FE8184839583A683B783F8CECA
:1019500020E030E0A901F801E558FF4F6081718176
:10196000828193810E94F534882339F040E050E071
:1019700060E87FEBC8018A96E2D820E030E0A90158
:10198000F801E958FF4F60817181828193810E9443
:101990007D3618160CF4EECEA8CDFC0180818111A5
:1019A00024C081E0808381819281A381B4810197E9
:1019B000A105B105D1F485818823B9F08FEF9FEFA0
:1019C000DC0186A397A3A0A7B1A782A593A5A4A590
:1019D000B5A50197A105B10541F482E090E0A0E032
:1019E000B0E082A793A7A4A7B5A70895CF92DF92EE
:1019F000EF92FF920F931F93CF93DF93C0911A043E
:101A0000D0911B0484E0E82E82E0F82E97E1C92EE5
:101A10009CE0D92EF6012081318142815381F7016A
:101A200064857585868597850E9481360DED1BE05E
:101A3000F80126A537A540A951A90E947E346883E4
:101A400079838A839B83F60124813581468157817E
:101A5000F70160A171A182A193A10E948136F801D2
:101A600022A133A144A155A10E947E346C837D83C1
:101A70008E839F83DF91CF911F910F91FF90EF9005
:101A8000DF90CF9008952F923F924F925F926F9286
:101A90007F928F929F92AF92BF92CF92DF92EF92FE
:101AA000FF920F931F93CF93DF93CDB7DEB7A0972D
:101AB0000FB6F894DEBF0FBECDBF80917504909134
:101AC00076048130910509F090C4609161047091B1
:101AD000620480916304909164046F5F7F4F8F4F25
:101AE0009F4F0E942A3520916504309166044091F1
:101AF0006704509168040E94813660939B03709341
:101B00009C0380939D0390939E0380EC8093FD0B38
:101B1000C12CEE24E39401E010E020E030E04DEF32
:101B20005BE068E470E08091A70A9091A80A0E94A7
:101B3000CF018093FD0B81116FC4CC24C394E12CA1
:101B400002E010E020E030E04BEF5BE068E470E0A2
:101B50008091A70A9091A80A0E9465018091FB0BD1
:101B60009091FC0B9093FA0B8093F90B90914202A9
:101B70008091F90B2091FA0BA22FB0E0989FA00D55
:101B8000B11D1124BA83A983B093EE0BA093ED0B82
:101B9000809175049091760421E08130910509F0DF
:101BA00020E02093FE0B019741F48091D90A909197
:101BB000DA0A9093F00B8093EF0BE981FA81BF0171
:101BC00090E080E00E942A352091040230910502C5
:101BD00040910602509107020E94F53487FF21C40C
:101BE0008091EF0B9091F00B9093F20B8093F10B9F
:101BF0006091F10B7091F20B90E080E00E942A3529
:101C0000209108023091090240910A0250910B0282
:101C10000E947D3420910C0230910D0240910E0201
:101C200050910F020E9481362DE53BE04BE05CE0D5
:101C3000B2DA2091170C3091180C4091190C509188
:101C40001A0C609114027091150280911602909105
:101C500017020E94813620E030E0A9010E947E3404
:101C60006B017C0120910B0C30910C0C40910D0C00
:101C700050910E0C609118027091190280911A0215
:101C800090911B020E9481369B01AC01C701B601F5
:101C90000E947E346093DD0B7093DE0B8093DF0B2C
:101CA0009093E00B80ED8093FD0BC12CEE24E39428
:101CB00001E010E020E030E04DEF5BE068E470E030
:101CC0008091B70A9091B80A0E94CF018093FD0BD2
:101CD0008111AEC3CC24C394E12C02E010E020E0DB
:101CE00030E04BEF5BE068E470E08091B70A9091E0
:101CF000B80A0E9465018091FB0B9091FC0B9093B8
:101D0000FA0B8093F90B309143022091F90B8091EB
:101D1000FA0B90E0329F800D911D11249093F40BEB
:101D20008093F30B2091FE0B222341F02091DB0ADC
:101D30003091DC0A3093F60B2093F50B2091400292
:101D4000309141022817390720F48091F50B9091CA
:101D5000F60B9093F80B8093F70B6091F70B709153
:101D6000F80B90E080E00E942A3520911C0230910F
:101D70001D0240911E0250911F020E947D3420914D
:101D800020023091210240912202509123020E94B0
:101D900081362DED3AE04FEF5BE0FDD93091FE0B3F
:101DA000398320911B0C30911C0C40911D0C5091DB
:101DB0001E0C609128027091290280912A02909154
:101DC0002B020E94813620E030E0A9010E947E347F
:101DD0006B017C012091FF0B3091000C4091010CB4
:101DE0005091020C60912C0270912D0280912E0274
:101DF00090912F020E9481369B01AC01C701B60170
:101E00000E947E346093E10B7093E20B8093E30BAE
:101E10009093E40B8981882309F49DC063E070E00E
:101E200080E090E00E9431029A8389839093D00AE7
:101E30008093CF0AC0903002D0903102E0903202FD
:101E4000F09033028090340290903502A0903602D8
:101E5000B0903702A5019401C701B6010E947D36FA
:101E600018160CF0EAC28092E50B9092E60BA09255
:101E7000E70BB092E80B20E030E04FE753E46091CD
:101E8000E50B7091E60B8091E70B9091E80B0E94B7
:101E9000F534181664F480E090E0AFE7B3E4809383
:101EA000E50B9093E60BA093E70BB093E80BC09083
:101EB000E50BD090E60BE090E70BF090E80B20E00C
:101EC00030E0A901C701B6010E947D3687FDCEC270
:101ED000C092E90BD092EA0BE092EB0BF092EC0B84
:101EE0004091E90B5091EA0B6091EB0B7091EC0B78
:101EF00089819A810E940F0265E070E080E090E0A5
:101F00000E9431029A8389839093C80A8093C70AFA
:101F100020E030E0A9016091E50B7091E60B809123
:101F2000E70B9091E80B0E947D3687FF08C0109266
:101F3000E50B1092E60B1092E70B1092E80B409124
:101F4000E50B5091E60B6091E70B7091E80B8981EE
:101F50009A810E940F0280917504909176040197F6
:101F6000E1F48091F10B9091F20B9093DA0A809357
:101F7000D90A8091F70B9091F80B9093DC0A80932B
:101F8000DB0A4091690450916A0460916B0470917E
:101F90006C0481E090E00E940E05809175049091A0
:101FA0007604019709F008C2E091CB03F091CC03CD
:101FB0000190F081E02D80819181A281B3818D8398
:101FC0009E83AF83B88780919B0390919C03A091DF
:101FD0009D03B0919E038B8B9C8BAD8BBE8BE09150
:101FE0009F03F091A003C080D180E280F380E09154
:101FF000CF03F091D00360807180E0919303F09162
:102000009403008111812280338044805580968121
:102010009987A781AD87E0919103F0919203118296
:10202000108288E0F301D80101900D928A95E1F7C2
:10203000E091C903F091CA0331822082D7DC20E00D
:1020400030E040E05FE3C701B6010E9481364B01FA
:102050005C01F10120813181428153810E948136EE
:10206000D8012D913D914D915C910E947E34F301F8
:102070006083718382839383D10114962D913D9166
:102080004D915C911797C501B4010E948136F8010A
:1020900024813581468157810E947E34D301149674
:1020A0006D937D938D939C931797E091CB03F09163
:1020B000CC03208131813A832983A50194016D816C
:1020C0007E818F8198850E947E34A981BA816D932B
:1020D0007D938D939C931397E091C903F091CA036C
:1020E00051824082D0DC82DC20E030E0A901C701CF
:1020F000B6010E9481364B015C0120E030E040E4F3
:102100005FE3C701B6010E94813669837A838B83BE
:102110009C83F20120813181428153810E9481366A
:102120006F87788B898B9A8BD1012D913D914D9141
:102130005C91C501B4010E9481369B01AC016F85A1
:10214000788989899A890E947E34F80120813181B9
:10215000428153810E947E34D3016D937D938D9390
:102160009C931397F1012481358146815781C501E4
:10217000B4010E9481364B015C01D20114962D916D
:102180003D914D915C91179769817A818B819C81FA
:102190000E9481369B01AC01C501B4010E947E34CE
:1021A000F80124813581468157810E947E34D30114
:1021B00014966D937D938D939C931797E091CB0329
:1021C000F091CC0320813181388B2F8729813A818E
:1021D0004B815C816D817E818F8198850E947E34E8
:1021E000AF85B8896D937D938D939C931397E09100
:1021F000C903F091CA03B985B0832D85218343DCDF
:10220000F5DB29E33EE843E65EE3C701B6010E9441
:1022100081366F87788B898B9A8B2BEA3AEA4AEA68
:102220005EE3C701B6010E9481366F8B788F898F7C
:102230009A8F29E33EE843EE5EE3C701B6010E94B0
:1022400081366B8F7C8F8D8F9E8F18A30F8F5E8250
:102250004D82398539838D858A838301AF8DB8A1FD
:102260001896BE87AD87EF8DF8A181919191A191CC
:10227000B191F8A3EF8F89879A87AB87BC87D1018B
:102280006D917D918D919D911D01ED81FE8141901A
:10229000519061907190FE83ED83A981BA81CD90B8
:1022A000DD90ED90FD90BA83A9832F853889498907
:1022B0005A890E9481364B015C012F89388D498DE6
:1022C0005A8DC301B2010E9481369B01AC01C50148
:1022D000B4010E947E344B015C012B8D3C8D4D8DF1
:1022E0005E8DC701B6010E9481369B01AC01C5011C
:1022F000B4010E947E3429853A854B855C850E9415
:102300007E34F80161937193819391938F012D85B0
:102310003E858F8D98A12817390709F0A4CFE09149
:10232000CB03F091CC030190F081E02D8B899C8947
:10233000AD89BE8980839183A283B383E0919103A9
:10234000F091920381E090E0918380838091610419
:1023500090916204A0916304B09164040196A11D60
:10236000B11D8093610490936204A0936304B093C1
:10237000640480919B0390919C03A0919D03B09174
:102380009E03E0917804F091790480839183A28385
:10239000B3838091690490916A04A0916B04B09119
:1023A0006C040196A11DB11D8093690490936A0489
:1023B000A0936B04B0936C04A0960FB6F894DEBFA4
:1023C0000FBECDBFDF91CF911F910F91FF90EF9086
:1023D000DF90CF90BF90AF909F908F907F906F9045
:1023E0005F904F903F902F900895892B09F08DCBEF
:1023F000E091CB03F091CC030190F081E02D80813E
:102400009181A281B381E0917804F0917904808375
:102410009183A283B38379CB1092F90B1092FA0BBC
:10242000A5CB29813A813093F20B2093F10BE0CBBD
:102430001092F90B1092FA0B66CC809038029090B3
:102440003902A0903A02B0903B02A5019401C70165
:10245000B6010E94F53487FD06CDC092E50BD092FF
:10246000E60BE092E70BF092E80B05CD1092E90B3A
:102470001092EA0B1092EB0B1092EC0B31CD3F92C5
:102480004F925F926F927F928F929F92AF92BF9284
:10249000CF92DF92EF92FF920F931F93CF93DF9330
:1024A000EBE8F3E085E794E097838683C8E7D4E020
:1024B000D093CC03C093CB0305E614E0158B048BBB
:1024C0002AE134E037AF26AF64E174E07093D003C3
:1024D0006093CF0329E534E03093CE032093CD03FE
:1024E0002BE534E03093D2032093D10326E134E08E
:1024F0003093D4032093D30328E134E03093D60300
:102500002093D5034CE154E05093120440931104FE
:10251000F093F603E093F503F583E48321E030E0E4
:10252000DC012D933C9310920C041092130481E46F
:1025300094E021E234E0DC012D933C9329E234E085
:10254000309344042093430421E334E03093460461
:102550002093450429E334E0309348042093470452
:1025600027E13CE0DB012D933C936FE17CE0DA0155
:102570006D937C9310926D0410926E0410926F0410
:1025800010927004918780878DE692E0938782870E
:102590008AE794E09983888340E050E060E87FEB2D
:1025A00040937104509372046093730470937404A5
:1025B0004DEC5CEC6CE47EE3D8014D935D936D9340
:1025C0007C931397C9E4D4E088E19AE8A3E4B6E3E6
:1025D00088839983AA83BB838CE196E7AEEBB6E24E
:1025E00080934D0490934E04A0934F04B0935004F5
:1025F00081EA9BEDA2E9BFE98093510490935204D4
:10260000A0935304B093540489E99EE3A0E1BCEA8B
:102610008093550490935604A0935704B0935804A4
:10262000AFE7B3E0B383A283E1E7F3E01196FC9355
:10263000EE9382E792E091838083938382839583F4
:102640008483978386839187808793878287958702
:1026500084878FE594E015969C938E931497139638
:10266000DC93CE9312974FEF5FEFBA0118964D931C
:102670005D936D937C931B97C1EADAE0E4E0F2E0AE
:1026800080AD91AD99AF88AFD9011D921D921D9279
:102690001C92139782AD93AD9BAF8AAFF901148260
:1026A000158216821782C12C80E5D82E83ECE82E85
:1026B00088E4F82ECC86DD86EE86FF861882812C93
:1026C000912C5401839489829A82AB82BC8250E01F
:1026D00040E060E070E0CB010E942C019F838E837C
:1026E00020EA422E26E8522E66246394712C4886F6
:1026F00059866A867B8640EA56E861E070E00E946F
:102700005001332433943D828DE59BE00E94B20852
:10271000CC8EDD8EEE8EFF8E188A898A9A8AAB8ADD
:10272000BC8A50E040E060E070E0CB010E942C01E8
:102730009F8B8E8B488E598E6A8E7B8E40EA56E830
:1027400061E070E00E9450013D8A8DED9AE00E94A8
:10275000B20818A689A69AA6ABA6BCA6E12CF12CB5
:102760008701A801970163E070E080E090E00E949B
:1027700075029FA78EA73DA618A289A29AA2ABA216
:10278000BCA2A801970165E070E080E090E00E94A3
:1027900075029FA38EA33DA2DF91CF911F910F9150
:1027A000FF90EF90DF90CF90BF90AF909F908F9071
:1027B0007F906F905F904F903F9008958091A10A15
:1027C000811119C081E08093A10A8091A20A9091A1
:1027D000A30AA091A40AB091A50A0197A105B10589
:1027E00051F48091A60A882331F08091A70A909134
:1027F000A80A0E940E028DE59BE0CFD88091B10A15
:10280000811119C081E08093B10A8091B20A909140
:10281000B30AA091B40AB091B50A0197A105B10518
:1028200051F48091B60A882331F08091B70A9091D3
:10283000B80A0E940E028DED9AE0AFD88091C90AC5
:1028400081112EC081E08093C90A8091CA0A9091BB
:10285000CB0AA091CC0AB091CD0A0197A105B10590
:10286000F9F48091CE0A8823D9F063E070E080E02B
:1028700090E00E9431029093D00A8093CF0A40E00A
:1028800050E0BA010E940F0263E070E080E090E047
:102890000E9431029093D00A8093CF0A0E94C00216
:1028A0008091C10A81112EC081E08093C10A80917C
:1028B000C20A9091C30AA091C40AB091C50A0197B7
:1028C000A105B105F9F48091C60A8823D9F065E025
:1028D00070E080E090E00E9431029093C80A8093FB
:1028E000C70A40E050E0BA010E940F0265E070E0C4
:1028F00080E090E00E9431029093C80A8093C70A5A
:102900000C94C00208954F925F926F927F928F92C3
:102910009F92AF92BF92CF92DF92EF92FF920F936E
:102920001F93F89440908E0450908F046090900410
:1029300070909104C0908204D0908304E09084044D
:10294000F09085044130510509F0A6C09B01AC010F
:10295000241935094609570929013A0100918A04C9
:1029600010918B0420918C0430918D044801590101
:10297000840C951CA61CB71C80169106A206B306F3
:10298000A0F400918604109187042091880430916E
:1029900089040F5F1F4F2F4F3F4F00938604109302
:1029A0008704209388043093890480928A0490924B
:1029B0008B04A0928C04B0928D0400918604109137
:1029C0008704209188043091890480929204909227
:1029D0009304A0929404B0929504009396041093EB
:1029E0009704209398043093990460938E04709315
:1029F0008F048093900490939104A301920160E46A
:102A00007DE083E090E00E9418426C0D7D1D8E1DDC
:102A10009F1D609382047093830480938404909339
:102A200085040091440210914502209146023091A4
:102A300047020F3F1F4F2F4F3F4FF1F000914402CD
:102A40001091450220914602309147020E3F1F4FE0
:102A50002F4F3F4F89F0C0904402D0904502E09044
:102A60004602F090470221E08C149D04AE04BF049E
:102A700008F420E020939E0478941F910F91FF901A
:102A8000EF90DF90CF90BF90AF909F908F907F900E
:102A90006F905F904F9008954B015C0184189508EA
:102AA000A608B708A3019201261B370B480B590B48
:102AB0006415750586059705E0F082169306A40651
:102AC000B50640F420E030E0A90181149104A1048E
:102AD000B104A1F460E47DE083E090E00E9418423C
:102AE000A7019601261B370B480B590BCA01B901E8
:102AF000C3CF82169306A406B50660F7A50194011C
:102B000060E47DE083E090E00E9418426C0D7D1D42
:102B10008E1D9F1DB1CFF7CECF93DF9300D01F92B4
:102B2000CDB7DEB71C821B821A82198210929A04DA
:102B300010929B0410929C0410929D04BE016F5F42
:102B40007F4FCE0103960E948D3269817A818B81FD
:102B50009C810E947B2B009761F4BE016F5F7F4FC9
:102B6000CE0103960E94993269817A818B819C8182
:102B70002BD50F900F900F900F90DF91CF9108956C
:102B8000FF920F931F93CF93DF93082F60E070E0C5
:102B9000CB010E94553CFF24F3940E94642AEC016F
:102BA000892B89F010E0CE3F8FEFD80769F0002322
:102BB00061F160E070E0CB010E94553C81E090E063
:102BC000892B59F322C011E022D5EC01892B21F089
:102BD000CE3F8FEFD80759F711111EC011E0229692
:102BE00009F410E00E94142AEC01892B21F0CE3F59
:102BF0008FEFD807E1F6111111C011E0CE3F8FEF32
:102C0000D80709F410E001110BC0CE01DF91CF917C
:102C10001F910F91FF90089511E0E4CF11E0F3CFE1
:102C200060E070E0CB010E94553C1F25812F90E0B1
:102C3000C7CFCF93DF9380919E04882321F060E07B
:102C400070E0CB0149D632D6D0E0C0E0892B71F0DC
:102C50006AE070E080E090E00E94553C81E090DF07
:102C600025D62196C03D27E0D20781F724D60E94C1
:102C7000CF2B1092B6041092B5041092AF041092AC
:102C8000B0041092B1041092B2041092AB041092EE
:102C9000AC041092AD041092AE041092A7041092EE
:102CA000A8041092A9041092AA041092A3041092EE
:102CB000A4041092A5041092A60410929F041092EE
:102CC000A0041092A1041092A2044EEF5FEF6FEFE8
:102CD0007FEF409344025093450260934602709305
:102CE000470210929E04E2E9F4E028E0DF011D9221
:102CF0002A95E9F710928E0410928F041092900496
:102D00001092910410928A0410928B0410928C04F9
:102D100010928D04109286041092870410928804F9
:102D200010928904109282041092830410928404F9
:102D300010928504DF91CF9108951092C2041092F1
:102D4000C3041092C4041092C5041092C10480916F
:102D5000CA049091CB049093C0048093BF04109256
:102D6000BE041092BD041092B9041092BA041092DD
:102D7000BB041092BC041092C7041092C60490E0E9
:102D800080E00895CF92DF92EF92FF920F931F930E
:102D9000CF938C01019709F055C02091CA0430915E
:102DA000CB048091BF049091C0044091CA0450911B
:102DB000CB045093C0044093BF042817390781F017
:102DC0001092BE041092BD041092B9041092BA047D
:102DD0001092BB041092BC041092C7041092C60457
:102DE0008091CA049091CB04019761F58091C6044B
:102DF0009091C704892B21F480914802811112C05F
:102E00008091C6049091C7040197E1F48091B904C0
:102E10009091BA04A091BB04B091BC040197A105A4
:102E2000B10581F41092B9041092BA041092BB0457
:102E30001092BC041092480282E090E09093C70484
:102E40008093C6048091CA049091CB04019709F045
:102E50001CC18091E0049091E1048017910709F072
:102E600014C18091DC049091DD04A091DE04B09146
:102E7000DF04009709F409C12091DB0421110DC082
:102E80004091DC045091DD046091DE047091DF0418
:102E9000452B462B472B09F4F8C02091C6043091EE
:102EA000C7042230310509F0F0C02091BD04211182
:102EB000ECC0FC01C080D180E280F3808091C1042D
:102EC000882309F4D3C08091CD049091CE04892B3E
:102ED00009F4FEC02091CD043091CE0481E022306F
:102EE000310509F080E02091CD043091CE04C1E09D
:102EF0002130310549F02091CD043091CE04C1E05C
:102F00002230310509F0C0E0882309F456C0209131
:102F1000D7043091D8044091D9045091DA04C70104
:102F2000B6010E947D3687FD14C02091D7043091F0
:102F3000D8044091D9045091DA046091C204709190
:102F4000C3048091C4049091C5040E94F53487FDA8
:102F500022C02091D7043091D8044091D9045091D7
:102F6000DA04C701B6010E947D36181634F52091A7
:102F7000D7043091D8044091D9045091DA0460917B
:102F8000C2047091C3048091C4049091C5040E944E
:102F9000F534811112C08091CF049091D004A0919A
:102FA000D104B091D204892B8A2B8B2B19F481E0A8
:102FB0008093BE0481E08093BD04CC2309F456C005
:102FC0002091D7043091D8044091D9045091DA046B
:102FD000C701B6010E94F53487FF14C02091D704C1
:102FE0003091D8044091D9045091DA046091C20420
:102FF0007091C3048091C4049091C5040E947D36F1
:1030000087FF22C02091D7043091D8044091D90481
:103010005091DA04C701B6010E94F534811126C02F
:103020002091D7043091D8044091D9045091DA040A
:103030006091C2047091C3048091C4049091C5044E
:103040000E947D36181694F48091CF049091D0049C
:10305000A091D104B091D204892B8A2B8B2B19F427
:1030600081E08093BE0481E08093BD0481E0909173
:10307000BD04911180E08093C104C092C204D0923B
:10308000C304E092C404F092C5040130110509F0B4
:1030900067C18091C6049091C704892BD9F410921E
:1030A000CC041092BD0480914802882379F082E01C
:1030B00090E09093C7048093C60410924802209138
:1030C000CA043091CB0481E0232BE9F080E01BC0DF
:1030D00081E009CF109248028091CC04882349F006
:1030E0001092BE041092C7041092C6041092CC0431
:1030F000EDCF8091CA049091CB04892BE1F08091AF
:10310000BD041092BD042091C6043091C704223042
:10311000310509F45EC088F42115310509F448C071
:103120002130310509F4F3C01092BE041092BD04A1
:103130001092CC0438C081E0E6CF2330310509F489
:10314000B1C02430310581F74091B9045091BA04DF
:103150006091BB047091BC04411551056105710576
:1031600061F041505109610971094093B9045093CC
:10317000BA046093BB047093BC044091B9045091AD
:10318000BA046091BB047091BC04452B462B472BBD
:10319000D9F42091C8043091C9042130310509F0D7
:1031A00046C01092BE041092C7041092C6040CC010
:1031B00080914802882341F082E090E09093C70418
:1031C0008093C604109248021092B7048091BE0406
:1031D000CEC08823C9F38091CF049091D004A091F0
:1031E000D104B091D204181619061A061B060CF069
:1031F0007DC08091CA049091CB04019709F076C0FC
:103200008091CF049091D004A091D104B091D204C8
:103210008093B9049093BA04A093BB04B093BC0408
:1032200083E090E09093C7048093C604CDCF409193
:10323000D3045091D4046091D5047091D604452BE9
:10324000462B472BA9F01092BE048091D304909195
:10325000D404A091D504B091D6048093B90490937E
:10326000BA04A093BB04B093BC0481E090E0DACF31
:10327000882399F08091490290914A02A0914B02D3
:10328000B0914C028093B9049093BA04A093BB040C
:10329000B093BC0484E090E0C5CF1092BE0482E0FD
:1032A00090E0C0CF8091B9049091BA04A091BB0482
:1032B000B091BC040097A105B10559F00197A1098F
:1032C000B1098093B9049093BA04A093BB04B0935E
:1032D000BC048091B9049091BA04A091BB04B09150
:1032E000BC04892B8A2B8B2B09F06ECF809149026D
:1032F00090914A02A0914B02B0914C02892B8A2BEB
:103300008B2B09F44ECF81E08093BE04B3CF409164
:10331000B9045091BA046091BB047091BC0441158A
:1033200051056105710561F041505109610971094B
:103330004093B9045093BA046093BB047093BC04E7
:103340004091B9045091BA046091BB047091BC04DF
:10335000452B462B472B09F037CF8111C7CF9FCF85
:103360008091B704882309F431CF8091B804CF91BC
:103370001F910F91FF90EF90DF90CF9008951092E2
:10338000C2041092C3041092C4041092C504109297
:10339000C1041092C7041092C6041092C004109287
:1033A000BF041092E1041092E0041092BE04109247
:1033B000BD041092B9041092BA041092BB0410928A
:1033C000BC041092B8041092B7041092DC0410925E
:1033D000DD041092DE041092DF041092DB041092E0
:1033E000D7041092D8041092D9041092DA0488EE0F
:1033F00093E0A0E0B0E08093490290934A02A0934A
:103400004B02B0934C021092D3041092D404109249
:10341000D5041092D6041092CF041092D0041092CA
:10342000D1041092D2041092CE041092CD0481E007
:10343000809348021092CC041092CB041092CA04DC
:103440001092C9041092C80490E080E00895809121
:10345000CA049091CB04892BE1F48091480288231F
:1034600051F08091CC04811106C081E08093B804B2
:103470008093B70408958091CC04882341F0809113
:103480004802811104C01092B80481E0F1CF10927B
:10349000B704089582E090E0FA01918380838FEF72
:1034A0009FEF0895CF93DF93EA01009711F00E94F8
:1034B000EF2C1982188290E080E0DF91CF9108957F
:1034C000DB01009719F48FEF8C9308952EEF2C9366
:1034D000FC017096E031F10508F037C08827EC5800
:1034E000F54E8F4F0C945D42A31AA11A9F1A9D1A94
:1034F0009B1A991A951A971A931A911A8F1A8C1A5D
:10350000881A841A8A1AA51A80E311968C93089552
:1035100089E2FBCF82E2F9CF11961C92089583E2F3
:10352000F4CF81E2F2CF81E1F0CF87E2EECF8AE201
:10353000ECCF80E1EACF84E2E8CF88E2E6CF86E212
:10354000E4CF81E3E2CF83E3E0CF80E2DECF80917E
:10355000EE049091EF0408959093EF048093EE04AD
:1035600008958091ED0408959091ED04892B809346
:10357000ED040895982F90958091ED048923809310
:10358000ED0408958091EC0408958091EA049091EF
:10359000EB0408956115710559F0FB0130E020E05E
:1035A00070E060E02417350719F06115710511F01E
:1035B000CB010895A081B181A817B90709F4BF0113
:1035C0002F5F3F4F3696EECF8091F00481111CC0E3
:1035D00060D266D29093E3048093E2040E94ED24CB
:1035E0000E94FF249093E7048093E6040E947C29C4
:1035F0000E9483299093E5048093E40481E0809302
:10360000F00490E080E0089584EF9FEF08958F929A
:103610009F92AF92BF92CF92DF92EF92FF920F9361
:103620001F93CF93DF9300D000D000D01F92CDB76F
:10363000DEB71A86198618861F821E821D821C829A
:103640001B821A8219828091F00407EF1FEF8823F2
:1036500009F49CC08E010D5F1F4F9E012B5F3F4FF1
:10366000AE01495F5F4FBE01675F7F4F90E080E032
:103670000E94002B8C01009721F00596029708F01C
:10368000DBC029853A852115310509F402C1ED8099
:10369000FE804B815C81B701640F751F8F81988517
:1036A0008617970708F4F5C0E20EF31ED7019C9128
:1036B000903C09F07FC04230510508F47BC0119660
:1036C0008C914091EE045091EF04452B09F49CC07D
:1036D000913F08F071C02CE1290F2D3008F48BC008
:1036E0002DE2290F203108F489C0903C21F481504B
:1036F000823008F483C088E3890F8B3008F481C0DE
:1037000090E6C92E9AE1D92EEAE4FAE16D817E8134
:10371000AE014F5F5F4F89859A8519955C01C11491
:10372000D104A1F189809A808114910479F18B816F
:103730009C818815990508F487C010E000E04B8152
:103740005C8170E060E0C7010E94874201151105AD
:10375000E9F449815A8169857A858D819E81680F56
:10376000791FC501F6011995E980FA800D811E8146
:103770002F81388549855A856FEF7FEF81E090E092
:103780000E949B2A8C01892B09F056C0C8012A96F9
:103790000FB6F894DEBF0FBECDBFDF91CF911F9162
:1037A0000F91FF90EF90DF90CF90BF90AF909F90E0
:1037B0008F90089580E085CF30E020E0220F331F06
:1037C000F901EE51FB4F0190F081E02D309709F4A3
:1037D00097CF892F90E01995009709F491CFDC01DC
:1037E0001296ED91FC9113971496CD90DC90309742
:1037F00009F08CCF1FC021E030E0E0CF22E030E0C4
:10380000DDCF23E030E0DACFD12CC12CE2E5FAE1C4
:103810009F3F09F07BCFE091E204F091E304309701
:1038200021F4C90104EF1FEF0CC08FEF90E0199550
:103830000097A9F604EF1FEF89859A85009709F490
:10384000A5CF0E94EF2CA2CF0E94CA2B8C018985A4
:103850009A850E94EF2C70E060E0C4010E94632B07
:1038600098878F830E94982A9E838D836F817885A5
:103870006115710559F0C8010E947B2E9A878987CE
:1038800006EF1FEF892B09F058CF59CF08EF1FEF34
:1038900056CF08EF1FEFD0CF2091F004222319F06C
:1038A00020E00C94042587EF9FEF08958091EE04AB
:1038B0009091EF0408950E9488290E94E228F5D093
:1038C000E2EEF4E088E0DF011D928A95E9F71092BC
:1038D000F00490E080E008950C94402721E040E05F
:1038E00050E0BA010C94042586E090E0FA0191833F
:1038F000808390E080E0089547E050E065E772E063
:1039000049CEDF92EF92FF920F931F93CF93DF93F5
:103910008A01EC01C60FD71FE090F404F090F50483
:10392000D9800E94B22BD816190678F082E090E078
:10393000F801918380838EEF9FEFDF91CF911F91EC
:103940000F91FF90EF90DF900895EF2841F482E00F
:1039500090E0F8019183808384EF9FEFEECF89811F
:103960008093F30490E00196F8019183808390E0C6
:1039700080E0E3CFCF93DF93EA010E94F127882311
:1039800021F00E94BF2B0E94F22782E090E09983F1
:1039900088838BEF9FEFDF91CF910895CF93DF93D3
:1039A000EB0186E0FB0111928A95E9F78FEF88839E
:1039B000D8DD8983E7DD8A83E8DD9D838C83DF9111
:1039C000CF910895CF93DF93EA010E94F4278111EC
:1039D00009C082E090E09983888385EF9FEFDF91B3
:1039E000CF91089590E080E0B7DD81E090E0998389
:1039F000888390E080E0F3CF0F931F93CF93DF9302
:103A0000EA018C01060F171F0E94F42781110BC0D9
:103A100082E090E09983888385EF9FEFDF91CF91DB
:103A20001F910F910895F8018181823038F082E072
:103A300090E0998388838EEF9FEFF0CF81E090E054
:103A40008BDD88E090E09983888390E080E0E6CF8A
:103A5000CF93DF930097D1F4EB01FB01329686E020
:103A6000DF011D928A95E9F78FEF888385E08983CE
:103A70001A820E94B22B8B830E94B12B9D838C8370
:103A800081E08E838F83DF91CF910895DF91CF9175
:103A900017CD8CE79CE19093F2048093F104089594
:103AA0008091F1049091F20408951092F204109222
:103AB000F10408958091F4049091F5040895411162
:103AC00005C0611571058105910561F06093F404ED
:103AD0007093F5048093F6049093F7044093F804F0
:103AE00081E0089580E00895FF920F931F93CF9394
:103AF000DF938A01EC01C60FD71FF9800E94B22B19
:103B0000F816190668F082E090E0F801918380834E
:103B10008EEF9FEFDF91CF911F910F91FF9008954E
:103B20006C817D818E819F814B81C9DF811108C0AD
:103B300082E090E0F8019183808384EF9FEFEACFE9
:103B400089818093F30490E00196F801918380834A
:103B500090E080E0DFCFCF93DF93EA01FC01E60F36
:103B6000F71F64817581868197814381A8DF811168
:103B700009C082E090E09983888384EF9FEFDF9112
:103B8000CF91089581E090E09983888390E080E070
:103B9000F6CFE4EFF4E04081518162817381480FF8
:103BA000511D611D711D408351836283738308958C
:103BB000CF93C091F3044C2F50E06091F4047091C6
:103BC000F50401960E947E428C2FE3DF1092F304ED
:103BD000CF910895009799F48091F4049091F504A1
:103BE0002FEFFB012083892B59F02091F30430E063
:103BF0002F5F3F4F2417350719F4CB01D9CF60CC85
:103C00000895009799F48091F4049091F5042FEFB2
:103C1000FB012083892B59F02091F30430E02F5FC2
:103C20003F4F2417350719F4CB01C2CF49CC089573
:103C300023E1AC01249FC001259F900D1124E09148
:103C4000FD04F091FE04E80FF91F23813481225016
:103C5000310981E02230310508F080E008950F93AA
:103C60001F93CF93DF930091FF0410910005D0E0E4
:103C7000C0E080E00C171D0749F491E0811190E04D
:103C8000892FDF91CF911F910F9108958111F5CF69
:103C9000CE01CEDF2196EECFA091FD04B091FE04BF
:103CA000109729F12091FF043091000582179307A6
:103CB000F0F453E1589F9001599F300D1124A20F49
:103CC000B31FED91FC911197309789F012968C916A
:103CD000681768F48DE0689FE00DF11D1124808164
:103CE0009181892B21F081E09281491708F080E0D1
:103CF00008959C0143E1429FC001439F900D112410
:103D0000E091FD04F091FE04E80FF91F83858230F5
:103D100091F481E090E06581768140914D0250916F
:103D20004E026417750711F490E080E0892B19F0BA
:103D300081E0232B09F080E00895FC01A081B1818E
:103D40008DE0689FA00DB11D112413964D915C91DB
:103D500085859685489F9001499F300D589F300D6D
:103D60001124C9010196611103C0478144FD0496E5
:103D70000895EF92FF920F931F93CF93DF93EA0181
:103D8000FC01E60FF71F02811381E480F5804F2DBF
:103D90006E2DC80181DF81110DC082E090E0998312
:103DA00088838EEF9FEFDF91CF911F910F91FF904E
:103DB000EF900895C8013CDF882339F082E090E05D
:103DC0009983888388EF9FEFEECF1093540200937E
:103DD0005302E0925502F092560281E090E09983FE
:103DE000888390E080E0DFCFCF92DF92EF92FF9266
:103DF0000F931F93CF93DF937A01EC01C60FD71F68
:103E0000C0905302D0905402009155021091560276
:103E1000412F602FC60140DF811110C082E090E089
:103E2000F701918380838AEF9FEFDF91CF911F91FC
:103E30000F91FF90EF90DF90CF900895C601F8DECC
:103E4000882341F082E090E0F7019183808388EF3E
:103E50009FEFEBCF4C815D816E817F819A8189815B
:103E60008F3F41F082E090E0F701918380838EEFF5
:103E70009FEFDBCFE3E1EC9D9001ED9D300D112430
:103E8000E091FD04F091FE04E20FF31F0190F08138
:103E9000E02D2DE0029FE00DF11D11240190F08135
:103EA000E02D27E0129FE00DF11D11248083918306
:103EB0008B81828343835483658376831F5F109352
:103EC000560281E090E0F7019183808390E080E0EA
:103ED000ACCFEF92FF920F931F93CF93DF937A01B2
:103EE0008C01060F171FC091FD04D091FE0420978E
:103EF00081F021E030E0F801828193814091FF045C
:103F0000509100058417950710F030E020E0232B36
:103F100071F482E090E0F701918380838EEF9FEF50
:103F2000DF91CF911F910F91FF90EF90089543E1A2
:103F3000489F9001499F300D1124C20FD31F78DE96
:103F4000882341F082E090E0F7019183808388EF3D
:103F50009FEFE6CFF8012481358120383105C8F67E
:103F600087818111D6CF4181842F90E08F7E009789
:103F700041F082E090E0F7019183808386EF9FEF2C
:103F8000CFCF4F833E832D83268128871986223009
:103F900010F421E0288721E030E0F701318320830D
:103FA000BFCF88E090E0FA019183808390E080E0C9
:103FB0000895FB018FEF808381E181838FEF9FEF75
:103FC0009383828380E890E09583848316821782AE
:103FD0000895FB018FEF808391E091838283938327
:103FE000848384E3858381E090E0978386830895CA
:103FF00082E090E0FA019183808380EF9FEF089543
:10400000DF92EF92FF920F931F93CF93DF93EA011A
:10401000FC01E60FF71F8181813071F082E090E0B2
:10402000998388838FEF9FEFDF91CF911F910F913D
:10403000FF90EF90DF90089582819381D480258155
:10404000E680F7800091FD041091FE040115110532
:1040500039F482E090E0998388838CEF9FEFE4CF7E
:104060004091FF04509100058417950738F082E0D5
:1040700090E0998388838EEF9FEFD6CF892B39F01C
:1040800082E090E09983888386EF9FEFCDCF8D2DDE
:104090008D7FB1F72130A1F781E0D11006C091E00A
:1040A000E916F10431F080E004C0E2E0EE16F1041C
:1040B000D0F3882329F390E080E0BADD882339F03B
:1040C00082E090E09983888388EF9FEFADCFF8017D
:1040D000D38681E08487F686E586108A178681E09C
:1040E00090E09983888390E080E09ECF4DE050E09F
:1040F0006FE972E04FCA8F929F92BF92CF92DF9288
:10410000EF92FF920F931F93CF93DF93EA01FC018D
:10411000E60FF71F828193810481B580E091FD0451
:10412000F091FE04309791F482E090E099838883C7
:104130008CEF9FEFDF91CF911F910F91FF90EF9048
:10414000DF90CF90BF909F908F9008952091FF04B3
:10415000309100058217930738F082E090E0998350
:1041600088838EEF9FEFE6CF23E1289F6001299F90
:10417000D00C1124EC0DFD1DE080F180E114F10460
:1041800099F28281081748F78DE0089F8001112479
:10419000E00EF11EF70180819181892B29F6BB2069
:1041A000E1F2F7E0BF9E40011124C4010E94B62C49
:1041B000F70191838083E091FD04F091FE04EC0D02
:1041C000FD1D0190F081E02DE00FF11F80819181B4
:1041D000009739F482E090E0998388838DEF9FEF18
:1041E000A9CFA40170E060E00E9487428091FD04A5
:1041F0009091FE04C80ED91EF60180819181080FAE
:10420000191FF801B28281E090E09983888390E0E1
:1042100080E090CFAF92BF92CF92DF92FF920F9348
:104220001F93CF93DF93EA01FC01E60FF71F828112
:104230009381F4800091FD041091FE040115110595
:1042400081F482E090E0998388838CEF9FEFDF9187
:10425000CF911F910F91FF90DF90CF90BF90AF90C3
:1042600008952091FF04309100058217930738F0DC
:1042700082E090E0998388838EEF9FEFE8CF2FEF65
:104280002F0D2C3FA8F723E1289F6001299FD00C18
:1042900011240C0D1D1DF80180819181892B89F657
:1042A000FDE0FF9E50011124C5010E94B62CF801CB
:1042B00091838083E091FD04F091FE04EC0DFD1DDF
:1042C00080819181009739F482E090E0998388831E
:1042D0008DEF9FEFBCCFA50170E060E00E948742A8
:1042E000E091FD04F091FE04EC0DFD1DF28281E0F1
:1042F00090E09983888390E080E0A9CFCF92DF920D
:10430000EF92FF920F931F93CF93DF93860F971F28
:10431000FC01028113818091FD049091FE04892BA0
:1043200081F082E090E0FA01918380838CEF9FEF2F
:10433000DF91CF911F910F91FF90EF90DF90CF9081
:104340000895C801B0E0A0E00197A109B1098F3F2D
:104350009F4FA105B10540F082E090E0FA01918302
:1043600080838EEF9FEFE4CF7A0183E1809F60012D
:10437000819FD00C1124C6010E94B62CEC0100973D
:1043800041F482E090E0F701918380838DEF9FEF0D
:10439000CFCFA60170E060E00E948742D093FE0478
:1043A000C093FD04109300050093FF0490E080E0AB
:1043B0002FEF3FEF41E061E070E08017910741F49B
:1043C00081E090E0F7019183808390E080E0B0CFBE
:1043D0003A8B298B1B864C877E876D87188A1F86B0
:1043E00001966396EACFEF92FF921F93CF93DF93EC
:1043F000EC0110E0F12CE12C6A811617B0F083E09B
:10440000689FB0011124AE014F5E5F4FC7010E944B
:104410001B2D009721F02FEF3FEF3A8B298BDF9177
:10442000CF911F91FF90EF900895612FCE0185DC11
:1044300061E070E00E94632BE816F90608F47C0145
:104440001F5FDACFF8942091FB043091FC0481E0E7
:104450002115310509F080E0232B09F078940895A7
:104460002F923F924F925F926F927F928F929F9284
:10447000AF92BF92CF92DF92EF92FF920F931F9372
:10448000CF93DF933C01660E771EF3018281938107
:104490004C01B12CA12CC091FD04D091FE042097B9
:1044A00069F021E030E06091FF047091000586170B
:1044B000970710F030E020E0232BD1F482E090E069
:1044C000FA01918380838EEF9FEFDF91CF911F914F
:1044D0000F91FF90EF90DF90CF90BF90AF909F90A3
:1044E0008F907F906F905F904F903F902F900895A6
:1044F0008092570290925802A0925902B0925A02AA
:1045000063E1689F9001699F300D1124C20FD31F92
:10451000F3018181833040F082E090E0FA019183E1
:10452000808386EF9FEFD1CF2A012B813C81232B03
:10453000F1F4288139819F8191FF2EC0232B09F44A
:104540006FC0209102059A81422F490F5527551FB0
:10455000BA0141E050E06138710514F050E040E0EC
:10456000452B09F45DC02A87920F90930205815074
:10457000823008F481C066DF882309F4D8C0F301D3
:104580008181813009F48DC008F47BC0823009F448
:10459000C6C090E080E0ADC0232B09F441C020915B
:1045A00001059A81E22FE90FFF27FF1F41E050E04C
:1045B000ED3FF10514F050E040E0452B89F12A87EA
:1045C000920F90930105D3CFA081B181A20FB31FA9
:1045D00011966C91060F111D0196295F3F4F8417AC
:1045E000950794F38D859E85089F1001099F300CD7
:1045F000189F300C1124C114D104D1F48F8184FF91
:1046000017C00E94B12BF5E02F0E311C21E082155E
:10461000930508F420E0A701435F5F4F21110EC00E
:1046200082E090E0F2019183808387EF9FEF4DCF8E
:104630000E94B12B2FEF221A320AE8CF888199818C
:10464000E80EF91EF70114830383FFEFCF1ADF0A88
:104650007A018A818C151D0409F00CF48CCFE88155
:10466000F981EE0DFF1D428150E030E020E010E0C6
:1046700000E090E080E0B3CFF12CE12CD12CC12CF4
:10468000E8CF81E090E09C838B83E9DA882309F40A
:1046900080CF81E090E00E94AC1A80E40E94BA1AB8
:1046A00078CF89899A89019661F083E090E09C83B4
:1046B0008B8382E090E00E94AC1A80E40E94B41ADE
:1046C00068CF8D819E8120914D0230914E028217DC
:1046D0009307D1F46091510270915202AE014F5E86
:1046E0005F4F80914F02909150020E943A2E0097A6
:1046F000E1F2789422E030E0F20131832083892BCB
:1047000099F08DEF9FEFE1CE89288A288B2869F6F2
:10471000029758F6CE0167DE188A1F86E8CF82E03E
:1047200090E09C838B8335CF90E080E0CECE82E01A
:1047300090E0F2019183808385EF9FEFC6CE8F9248
:104740009F92AF92BF92CF92DF92EF92FF920F9320
:104750001F93CF93DF93EA018C01060F171FF80117
:104760008181833098F082E090E09983888386EF9E
:104770009FEFDF91CF911F910F91FF90EF90DF900E
:10478000CF90BF90AF909F908F9008958091FD043F
:104790009091FE04892B61F081E090E02091FF046C
:1047A00030910005232B11F490E080E0892B39F43F
:1047B00082E090E0998388838EEF9FEFDACF42DE2C
:1047C000882309F4E0C0F8018181813009F496C0A2
:1047D000E8F0823099F42091FF0430910005E091D7
:1047E000FD04F091FE0490E080E041E050E02817E5
:1047F000390709F0BEC033DA811117C0789481E01F
:1048000090E09983888390E080E0B3CF2091FF040B
:1048100030910005E091FD04F091FE0490E080E00D
:1048200041E050E02817390741F481E090E00E9410
:10483000AC1A80E40E94BA1AE1CF63817481672BBD
:1048400011F05483438301967396ECCFE091FD04FD
:10485000F091FE04E00FF11F2381348122303105F5
:10486000D9F4218932892F3F3F4FB1F42581368118
:1048700040914D0250914E022417350761F5AF016A
:104880004F5E5F4F609151027091520280914F02D2
:10489000909150020E943A2EEFEFCE1ADE0AEE0AF5
:1048A000FE0A0D5E1F4F4091FF045091000570E01D
:1048B00060E0C416D506E606F70644F5009731F227
:1048C0007894892B09F49BCF82E090E099838883C8
:1048D0008DEF9FEF4ECFC114D104E104F104E1F656
:1048E00022303105C8F6CF017EDDE091FD04F09164
:1048F000FE04E00FF11F108A1786CECF10E000E013
:1049000090E080E0C12CD12C7601CDCF0097C1F68C
:1049100010E000E0812C912C540183E0E82EF12C72
:104920001AC0E091FD04F091FE04E00FF11F8381B5
:104930009481029749F4F482E38282E090E00E943D
:10494000AC1A80E40E94B41AFFEF8F1A9F0AAF0AD4
:10495000BF0A0D5E1F4F8091FF0490910005B0E0EB
:10496000A0E088169906AA06BB06DCF290E080E07B
:10497000A7CF638174816230710511F4548343833E
:104980000196739634CF82E090E09983888385EF17
:104990009FEFEFCE0097B9F48FEFFB01808320915A
:1049A00057023091580243E1429FC001439F900D4E
:1049B0001124E091FD04F091FE04E80FF91F8285B7
:1049C000FB01818308950C94601A88E090E0FA015D
:1049D0009183808390E080E008951092FC0410920F
:1049E000FB04EDEFF4E086E0DF011D928A95E9F724
:1049F00086E790E29093FA048093F90408958091F9
:104A0000F9049091FA0408952F923F924F925F9289
:104A10006F927F928F929F92AF92BF92CF92DF92CE
:104A2000EF92FF920F931F93CF93DF93CDB7DEB733
:104A30002F970FB6F894DEBF0FBECDBFF894E0916C
:104A4000FB04F091FC043196F093FC04E093FB042A
:104A500078944090FD045090FE044114510409F4F0
:104A60000CC2E091FF04F0910005EF2B09F405C2A0
:104A70002D8749875A876B877C8798878F83120198
:104A8000B12CA12C10E000E08091FF049091000572
:104A9000A816B90618F40115110529F1F8948091AA
:104AA000FB049091FC0401979093FC048093FB0419
:104AB0007894C8012F960FB6F894DEBF0FBECDBF15
:104AC000DF91CF911F910F91FF90EF90DF90CF90EA
:104AD000BF90AF909F908F907F906F905F904F901E
:104AE0003F902F9008957101E418F508D1011796B1
:104AF0008C91179781FD54C013968D919C911497BA
:104B0000039709F04DC015968D919C91EF81F88522
:104B10008E179F0709F044C0B50190E080E07FD474
:104B20008A832091FD043091FE043D832C833D85D2
:104B3000332309F44CC04C815D81452B09F49AC1A3
:104B40008091FF0490910005A816B90608F092C163
:104B5000C501CFD88823E9F06C817D816E0D7F1D62
:104B60007D836C83DB011F968D919C91892B89F04D
:104B7000D12CC12CF12CE12CAC81BD8112968C91F1
:104B800012978E151F0409F094F450961C921E92F1
:104B90001F972A81222321F0B50190E080E041D4C3
:104BA0003FEFA31AB30A43E1240E311C6DCFAC8151
:104BB000BD81ED91FC91EC0DFD1D858196810FD796
:104BC000BFEFEB1AFB0AEDE0CE0ED11CD5CFEC8186
:104BD000FD81309709F44EC18091FF04909100054A
:104BE000A816B90608F046C1EE0DFF1DFF87EE8737
:104BF000C5017FD88B83882339F1AE85BF851F9689
:104C00008D919C915097019621E01D964D915C915C
:104C10008417950709F020E02E831982712C10E08B
:104C200000E0AE85BF8512968C91781608F45DC0C1
:104C3000EE85FF85878590890196658576850E943A
:104C40002742908B8787A5CFB1E0BE83E6CF99241A
:104C500093946BC08BD6F6019683858382C0D60170
:104C6000ED90FC90B7E06B9EE00CF11C1124F70175
:104C70006381748180818F3F61F121E030E002C067
:104C8000220F331F8A95E2F7C901092E000CAA0BE7
:104C9000BB0BFB0140815181628173818423952389
:104CA000A623B72321E0892B8A2B8B2B09F420E044
:104CB000D4012C93D70111968C91F601238534856C
:104CC000820F932F911D880E991E1486138663946C
:104CD0009BC0418150E0C4010E947E42EBCF99828B
:104CE00006EF1FEFC5C01982C3C0F981F111A0CF33
:104CF000EDE07E9E70011124AE85BF85CD90DC90E5
:104D0000CE0CDF1C15D49D838C83BB81BB2309F49F
:104D10009ECF81E0EE85FF8527853089232B09F022
:104D200080E0982E882309F458C0672D8E859F85D2
:104D300004D8D60118969C938E93179761E070E083
:104D4000C2D4EE85FF85218932892F3F320709F4CD
:104D500081CFBC01C901CFD7D60116969C938E9303
:104D60001597D60115968D919C911697009709F489
:104D7000B6CFEC81FD818E0F9F1F1A969C938E9368
:104D80001997AE85BF85ED91FC911197EE0EFF1E30
:104D9000F70121853285148613861A968C91870D2A
:104DA000D9018D93711016C0EE85FF85878184FF30
:104DB00011C049855A856B857C85F90141835283F1
:104DC00063837483F701838594850496A80FB91FC4
:104DD00014861386F701B287A187D60115968D91A7
:104DE0009C911697892B09F443C0EE85FF85258198
:104DF000368180914D0290914E022817390779F043
:104E000019968D909C90612CD60112968C911297D8
:104E1000681608F424CF1A969C928E921997BE8138
:104E2000BB2309F460CF61E070E0F60187819085D3
:104E30004AD4D6011796ED90FC90189715964D918F
:104E40005C91E1E0F0E0BA81BB2311F0F0E0E0E03A
:104E50000C811D819C01B501882799278E1B9F0B12
:104E60006AD38C01892B21F0F60185819681B7D513
:104E70007394D7CE0FEF1FEF8CCE10E000E00ECE74
:104E80002F923F924F925F926F927F928F929F925A
:104E9000AF92BF92CF92DF92EF92FF920F931F9348
:104EA000CF93DF938091FD049091FE0410E000E029
:104EB000892BA9F0C7DA0AEF1FEF882381F0209031
:104EC000FF0430900005C091FD04D091FE04D12C68
:104ED000C12C10E000E02C143D04A9F47894C80122
:104EE000DF91CF911F910F91FF90EF90DF90CF90C6
:104EF000BF90AF909F908F907F906F905F904F90FA
:104F00003F902F900895C6010E94791E882309F1D1
:104F10008B819C810397E9F48F859889892BC9F04F
:104F2000B60190E080E07BD221E030E0882311F0F0
:104F300030E020E044245524421A530AB12CA12C1D
:104F4000912C812C8A818815190409F038F4188A6B
:104F50001F864FEFC41AD40A6396BDCFE881F9814A
:104F6000EA0DFB1D85819681892BA1F161E070E03E
:104F700087819085A8D33C01DBD28C01E881F9813F
:104F8000EA0DFB1D8185928525813681200F311F19
:104F9000AC01421B530B9A0147815085421B530BB6
:104FA00070E060E00E948742E881F981EA0DFB1D14
:104FB000E780F084458156819301B601C201BBD2DE
:104FC0008C01892B39F0E881F981EA0DFB1D85817F
:104FD000968105D55FEF851A950A8DE0A80EB11C64
:104FE000B1CF30CA789408952F923F924F925F923A
:104FF0006F927F929F92AF92BF92CF92DF92EF9289
:10500000FF920F931F93CF93DF9300D000D0CDB7C3
:10501000DEB70091FD041091FE04992493940115CC
:10502000110509F43EC0A090FF04B09000050ADA13
:10503000982E8823B1F11092FE041092FD04109274
:1050400000051092FF0410920105109202058FEFE7
:105050009FEFDC018093570290935802A09359026E
:10506000B0935A0278947FD31E830D83C12CD12C28
:105070007601C501B0E0A0E089839A83AB83BC834D
:1050800022242A94322C89819A81AB81BC81C81652
:10509000D906EA06FB06F4F0C801A1D480E40E9418
:1050A000BA1A892D26960FB6F894DEBF0FBECDBF73
:1050B000DF91CF911F910F91FF90EF90DF90CF90F4
:1050C000BF90AF909F907F906F905F904F903F9078
:1050D0002F900895AD81BE8115968D919C91169764
:1050E00020914D0230914E0282179307D1F45196D0
:1050F0008D919C91EED5ED81FE8180819181B12CC5
:10510000A12C412C512C3201892B89F5BFEFCB1AF0
:10511000DB0AEB0AFB0AED81FE817396FE83ED83C9
:10512000B2CFC114D104E104F10429F7029718F7B2
:10513000ED81FE81818992898F3F980709F029D5F9
:10514000AD81BE8152963C922E925197D4CF8A0D5A
:105150009B1DDC018D919C91009709F040D4BFEF1D
:105160004B1A5B0A6B0A7B0AEDE0AE0EB11CAD81F7
:10517000BE818D919C91119712964C9150E070E0F8
:1051800060E044165506660677060CF328D4BECFB9
:10519000CF93DF93EA0128DF811109C082E090E01C
:1051A0009983888385EF9FEFDF91CF91089581E008
:1051B00090E00E94AC1A81E090E09983888390E0AF
:1051C00080E0F2CF11DF1092FA041092F9040895F2
:1051D00042E050E06DEE72E00C94CA1AFF920F9319
:1051E0001F93CF93DF938A01EC01C60FD71FF9807D
:1051F000B9D20897F816190671F068F082E090E0CD
:10520000F801918380838EEF9FEFDF91CF911F9103
:105210000F91FF9008956C817D818E819F814B81DC
:105220000E945F1D811108C082E090E0F801918327
:10523000808384EF9FEFE9CFF9800E945A1D4F2DA4
:1052400050E0BE01685F7F4F0E947E4289810E94CC
:10525000C91D81E090E0F8019183808390E080E0B7
:10526000D4CFDF92EF92FF920F931F93CF93DF93F0
:105270008A01EC01C60FD71F0E945A1D7C01D980FC
:1052800071D2DD2059F0029721E030E0D8161906DE
:1052900019F010F030E020E0232B79F482E090E068
:1052A000F801918380838EEF9FEFDF91CF911F9163
:1052B0000F91FF90EF90DF900895EF2841F482E086
:1052C00090E0F8019183808384EF9FEFEECFF98027
:1052D0000E945A1D4F2D50E0BE016E5F7F4F0E940D
:1052E0007E4289810E94C91D81E090E0F80191838E
:1052F000808390E080E0D9CF88EE98E29093040517
:105300008093030508958091030590910405089505
:105310000895FC0111821082938382830895DB013A
:105320001D921C92DC011296ED91FC9113977183F2
:10533000608313967C936E9312970895FC0180818D
:105340009181DB018D939C93A081B181109741F0F5
:105350008D919C9191838083892B11F4F383E28357
:105360000895FC0180819181DB018D939C93892BB1
:1053700011F473836283718360830895FC01118249
:105380001082938382830895CF93DF931F921F929D
:10539000CDB7DEB71A821982F894BE016F5F7F4FD6
:1053A0008AE095E0CBDF89819A81009709F017D3D5
:1053B00089819A81892B89F7BE016F5F7F4F8EE0CB
:1053C00095E0BCDF89819A81009709F008D3898133
:1053D0009A81892B89F778940F900F90DF91CF9164
:1053E0000895CF93DF931F921F92CDB7DEB71A8235
:1053F0001982F894BE016F5F7F4F86E095E09EDFD3
:1054000089819A81009709F0EAD289819A81892B52
:1054100089F778940F900F90DF91CF91089581E0F4
:10542000089590E080E00895EF92FF920F931F930C
:10543000CF93DF931F921F92CDB7DEB71A821982E6
:105440008091050507EF1FEF8823A1F1F894BE01B5
:105450006F5F7F4F8EE095E071DF789489819A814C
:10546000EE24E394F12C892B51F4F894BE016F5F84
:105470007F4F8AE095E062DF7894F12CE12C8981FE
:105480009A810EEF1FEF0097A9F0FC014281538132
:1054900064E070E076D68C01892B61F0F894698124
:1054A0007A81C701880F991F880F991F865F9A4FCD
:1054B00058DF7894C8010F900F90DF91CF911F9122
:1054C0000F91FF90EF9008950F931F93CF93DF9369
:1054D00000D01F92CDB7DEB71C821B821A821982C0
:1054E0008091050507EF1FEF8823C1F0AE014D5FE6
:1054F0005F4F64E070E0CE010196B6D68C01892B37
:1055000069F4E981FA818B819C8193838283F89489
:1055100069817A8186E095E002DF7894C8010F9076
:105520000F900F900F90DF91CF911F910F910895E1
:10553000BBD7049608958F929F92AF92BF92CF925D
:10554000DF92EF92FF920F931F93CF93DF931F92FF
:105550001F92CDB7DEB71A821982BC016F5F7F4FF1
:105560006330710598F0AA24AA94BA2CC5010F9053
:105570000F90DF91CF911F910F91FF90EF90DF90EF
:10558000CF90BF90AF909F908F9008954115510597
:1055900051F3480159018A016C01CADF8815990548
:1055A00011F7E114F104F9F28E0D9F1DA816B9064A
:1055B000D0F2809105058823F1F0F894B50164508C
:1055C00071099701AE014F5F5F4FC8010496E1D6A4
:1055D0005C01892B71F489819A81F801938382831C
:1055E000C601880F991F880F991FB801865F9A4FCF
:1055F00096DE7894BBCF87EFA82EBB24BA94B6CFA3
:10560000AF92BF92CF92DF92EF92FF920F931F93D0
:10561000CF93DF931F921F92CDB7DEB71A82198204
:10562000892B09F047C06115710509F443C0411584
:10563000510509F43FC02115310509F43BC001159E
:105640001105C1F1809105058823B9F179016A013D
:105650005B01F894BE016F5F7F4F86E095E06EDEE0
:10566000789489819A81009759F1DC0112966D91A5
:105670007C91A8010496A6D68C01E981FA81D50116
:10568000ED93FC93828193810496F601918380834C
:105690004FDFD7018D939C93C8010F900F90DF913E
:1056A000CF911F910F91FF90EF90DF90CF90BF901F
:1056B000AF9008950FEF1FEFEFCF07EF1FEFECCF85
:1056C0000EEF1FEFE9CFCF93DF93EC01672B71F45F
:1056D000F4D68C179D0760F0E7D62496C80FD91F23
:1056E000E6D68C0F9D1FDF91CF910895E3D6F1CFC1
:1056F00090E080E0F8CF0F931F93CF93DF9320913A
:10570000050521112BC08B01EC018AE095E001DE3B
:105710008EE095E0FEDD86E095E0FBDD97D000971A
:10572000C1F4CBD670E060E0CEDF4BE552E062E042
:1057300070E081D1009769F480915B0290915C02E6
:10574000CED6B801CE0103D5009719F421E02093FD
:105750000505DF91CF911F910F91089584EF9FEF81
:10576000F8CFA8C6AAC6CF93DF93AAD6EC01892B9F
:1057700011F40ADE36DECE01DF91CF910895CF938A
:10578000DF939ED6EC01892B09F4FEDDCE01DF917B
:10579000CF91089580915B0290915C020895CF9320
:1057A000DF9380910505D0E0C0E08823D1F09CD63E
:1057B000EC01892BB1F4E8DD14DE80915B0290915D
:1057C0005C02E7D1E8D2EC01892B59F48AE095E03C
:1057D000D5DD8EE095E0D2DD86E095E0CFDD10925C
:1057E0000505CE01DF91CF910895EF92FF920F93BF
:1057F0001F93CF93DF93EC017A018B010F5F1F4F53
:105800000E9DA0010F9D500D1E9D500D112470E0A6
:1058100060E00E94874290E080E0F0E0E0E02FEF5F
:10582000E816F90639F4DF91CF911F910F91FF909F
:10583000EF9008951A8219822883309711F0D2834D
:10584000C1830196FE01C00FD11FEACFCF92DF9234
:10585000EF92FF920F931F93CF93DF9303E816E02D
:105860000C7F43E050E06DE572E083E692E01CD4EB
:105870008DE5E82E82E0F82E93E6C92E92E0D92E2F
:10588000CAE1D7E0D7014D915D917D01F6016191AB
:1058900071916F01198308835D834C835B834A8315
:1058A0007F836E839B012F5F3F4F249FC001259F05
:1058B000900D349F900D112499878887011511054B
:1058C00011F0C80192DF88859985080F191F2A9663
:1058D000F3E6EF16F2E0FF06A9F6E4E1F5E08CE668
:1058E00091E0DF019C011D9221503040E1F71092C0
:1058F0001305109212051092390710923807109272
:105900003D0710923C0710923B0710923A07109205
:105910003F0710923E0710924107109240071092E5
:1059200043071092420710924707109246071092C1
:1059300045071092440710924907109248071092A9
:105940004B0710924A0710921707109216071092F1
:1059500019071092180790E080E0DF91CF911F9116
:105960000F91FF90EF90DF90CF9008950097F1F0A6
:10597000F894A3E6B2E0EAE1F7E030E020E04D91F0
:105980005D9148175907A8F042815381411551058F
:1059900081F08AE0829FF001839FF00D1124E65E82
:1059A000F84F80819181009759F4789490E080E0DD
:1059B00008952F5F3F4F3A962330310501F7F5CF19
:1059C000DC0111966D917C91718360834150510986
:1059D00053834283FC012193CF017894089500976B
:1059E00049F1DC018E91853041F4E0911807F09186
:1059F00019073097F9F0CD0119948530D8F4282F84
:105A000030E0F8948FEF8C938AE0829FF001839FBF
:105A1000F00D1124E65EF84F8081918112969C93DF
:105A20008E931197B183A083828193810196938392
:105A3000828378940895CF92DF92EF92FF920F9332
:105A40001F93CF93DF939C0187E195E08C7F4115F5
:105A5000510509F49BC02115310509F497C0611562
:105A6000710509F493C07A01AB01B9016D5F7F4FF5
:105A70006C7F9B012F5F3F4F249F8001259F100D5E
:105A8000349F100D1124F894209138073091390774
:105A9000232B59F4209140073091410721153105FE
:105AA00069F12017310708F058C020914207309162
:105AB0004307232B91F42091400730914107820F37
:105AC000931F20914A0730914B072115310509F4A6
:105AD00041C02017310708F056C07894CFEFDFEFB0
